:020000040800F2
:10000000F0370020010100081936000811340008FB
:1000100015360008DD0E0008153D00080000000040
:100020000000000000000000000000006B37000826
:10003000590F000800000000553600086D37000811
:100040001B0100081B0100081B0100081B01000820
:100050001B0100081B010008810F00081B0100089C
:100060001B0100081B0100081B0100081B01000800
:100070001B0100081B010008190F00081B010008E4
:100080001B010008290F00081B0100081B010008C4
:100090001B0100081B0100081B0100081B010008D0
:1000A0001B0100081B0100081B0100081B010008C0
:1000B0001B0100081B0100081B0100081B010008B0
:1000C0001B0100081B0100081B0100081B010008A0
:1000D0001B010008D13C0008E13C00081B0100089E
:1000E0001B0100081B0100081B010008DFF80CD0F1
:1000F00000F012FD0048004765470008F037002077
:100100000648804706480047FEE7FEE7FEE7FEE7B1
:10011000FEE7FEE7FEE7FEE7FEE7FEE7F137000851
:10012000ED0000082DE9F0410024061B254671F181
:10013000000605DA01240027D0EB070067EB010178
:10014000161E73F1000605DA0027D2EB070201251F
:1001500067EB030300F050FB86460E4617469C46AD
:10016000AC4204D00025D0EB050E65EB010624B1AE
:100170000020D2EB000760EB030C704631463A4694
:100180006346BDE8F081202A04DB203A21FA02F020
:100190000021704721FA02F3D040C2F120029140C1
:1001A00008431946704740EA01039B0703D009E062
:1001B00008C9121F08C0042AFAD203E011F8013B53
:1001C00000F8013B521EF9D27047D2B201E000F8AC
:1001D000012B491EFBD270470022F6E710B51346EB
:1001E0000A4604461946FFF7F0FF204610BD30B519
:1001F00005462A460B4612F8010B13F8014B08B1CD
:10020000A042F8D01CB1002802D06D1CF1E72846AE
:1002100030BD421C10F8011B0029FBD1801A704729
:100220000FB400B58DB010A909900B9000914FF05C
:10023000FF300A9000200C90054806900548079072
:100240006A4609A80F9900F01DFB0DB05DF814FB7C
:10025000A1080008BF0800082DE9FF4F1C4681B027
:100260000021D4E9016791464FF0FF358A46884660
:10027000A1696D1C02988847216A83468847002837
:10028000F6D1BBF1FF3F0CD026F4C066002F1ADD7B
:10029000700615D5BBF12B0F0AD0BBF12D0F0FD176
:1002A00004E04FF0FF3005B0BDE8F08F46F4806603
:1002B000A1696D1C029888477F1E8346002F02DDCE
:1002C000BBF1300F03D0B9F1000F2AD025E0A169AE
:1002D0006D1C46F400767F1E029888478346002FE7
:1002E00005DDBBF1780F06D0BBF1580F03D0B9F193
:1002F000000F10D011E0B9F1000F02D0B9F1100FCA
:100300000BD1A1696D1C26F400767F1E02988847E8
:100310008346102000E0082081464FEAE9700090F3
:1003200017E00A20F8E74346AAFB092803FB0980E7
:10033000DDF800C07F1E0AFB0C0112EB0B0A41EB3B
:10034000EB78A16946F4007605F10105029888472B
:100350008346002F06DD4946584600F07EFA5FEAE4
:10036000000BE0D5E16902988847B00502D46FF030
:10037000010098E7F00718D1700610D570055146B6
:1003800005D50023D1EB030163EB080200E04246F0
:100390002068031D23600068C0E9001205E02068A2
:1003A000011D21600068C0E900A828467BE72DE90F
:1003B000FF5F1D464FF0FF3BD5E9014691465F4682
:1003C0004FF00008A9697F1C01988847296A824676
:1003D00088470028F6D1BAF1FF3F0CD024F4C0645E
:1003E000002E19DD600614D5BAF12B0F09D0BAF131
:1003F0002D0F0ED103E0584604B0BDE8F09F44F441
:100400008064A9697F1C01988847761E8246002E69
:1004100002DDBAF1300F03D0B9F1000F26D032E07F
:10042000A969761E44F400747F1C019888478246AF
:10043000002E05DDBAF1780F06D0BAF1580F03D0BF
:10044000B9F1000F10D01EE0B9F1000F02D0B9F1E0
:10045000100F18D1A969761E24F400747F1C01982E
:1004600088478246102002E0082000E00A208146EA
:1004700009E008FB0908A969761E44F400747F1C92
:10048000019888478246002E05DD4946504600F017
:10049000E4F90028EDDAE96901988847A00502D45B
:1004A0006FF00100A8E7E00725D1600613D56005CD
:1004B00002D5C8F1000000E0404629680A1D2A6004
:1004C0000968220501D5087015E0220701D50880CA
:1004D00011E008600FE02868011D2960006821050F
:1004E00002D580F8008006E0210702D5A0F8008040
:1004F00001E0C0F8008038467EE72DE9FF5FD2E9D1
:1005000001A74FF00008916999461446DDF838B00C
:10051000464601988847054659EA0B0005D009E090
:10052000A169761C019888470546216A28468847B4
:100530000028F5D1681C03D05FEACA7005D015E029
:100540004FF0FF3004B0BDE8F09F2068011D21602E
:10055000D0F800800AE05FEACA7001D108F8015BB8
:10056000A169761C7F1E019888470546002F1ADD79
:10057000681C18D0B9F1000F0DD0E81705EBD0605A
:10058000421120F01F0059F822102A1A0120904031
:100590000142E0D107E0BBF1000FDCD1216A28461F
:1005A00088470028D7D0E16901988847BBF1000F40
:1005B00007D1002E05DD5FEACA7002D1002188F85C
:1005C0000010A068B84203DDBBF1000F03D017B1E3
:1005D0006FF00100B6E73046B4E72DE9FE4F81EA3F
:1005E000030404F0004421F0004100944FF0000B9C
:1005F00023F0004350EA01045ED052EA03045BD0CA
:10060000C3F30A54C1F30A552C44A4F2F334019401
:10061000A0FB0254C1F3130141F48011C3F313038F
:1006200043F4801301FB024400FB034E840A970A43
:1006300044EA815447EA8357A4FB076802958D0A70
:1006400005FB07854FEA932C04FB0C542705029DFC
:100650004FEA065847EA1637B5EB08056EEB070C6C
:10066000870E920E47EA811742EA8312A7FB020126
:10067000B6EB0B0164EB00042B0D43EA0C335E1860
:1006800044EB1C50DA465146E7FB0201C5F3130464
:100690004FEA0B3343EA14534FEA0432019C43EA16
:1006A0000603A4F10C040294009CCDE900B400F010
:1006B00026F903B0BDE8F08F00200146F9E72DE9E7
:1006C000F04D81EA030404F0004B21F0004514468C
:1006D0004FF0000A23F0004150EA050220D054EA0E
:1006E00001021DD0C5F30A570246C5F31303C1F337
:1006F0001300C1F30A5640F4801543F48013A7EBAE
:100700000608101BD64608F2FD3873EB050002D32D
:1007100008F1010801E092185B41B8F1000F03DA1B
:1007200000200146BDE8F08D00204FF48011064600
:1007300084460EE0171B73EB050705D3121B63EB12
:10074000050306434CEA010C49084FEA30009218B1
:100750005B4150EA0107EDD152EA030012D082EA70
:10076000040083EA0501084305D0101BAB4106D203
:100770000122002306E000224FF0004302E06FF068
:10078000010253101AEB06004CEB085110EB0A0063
:1007900041EB0B01BDE8F04D00F0A2B830B5041EEE
:1007A00071F1000404DB4FF00044404264EB0101AE
:1007B000141E73F1000405DB1C464FF00043524247
:1007C00063EB0403994208BF904230BD30B50B463D
:1007D000014600202022012409E021FA02F59D4271
:1007E00005D303FA02F5491B04FA02F52844151E45
:1007F000A2F10102F1DC30BD2DE9F05F05460020D9
:1008000092469B4688460646814640241BE0284681
:10081000414647462246FFF7B6FC53465A46C01AA1
:10082000914110D311461846224600F087F92D1A3F
:1008300067EB01084F4622460120002100F07EF9B7
:1008400017EB00094E41201EA4F10104DFDC4846ED
:1008500031462A464346BDE8F09F3A2800D2303858
:1008600020F02002412A01D3A2F13700884201D3AF
:100870004FF0FF30704700000268114413780160A8
:1008800018467047D1600449516104491162002142
:100890001161114600F078B9790800087F0B000853
:1008A000426842B1016811F8013B23B1521EC0E910
:1008B0000012184670470121C160881E70474268C7
:1008C0005AB1C368016843B983688B4205D0491E99
:1008D000521CC0E90012002070474FF0FF307047F3
:1008E00010B5141E73F1000408DA401C41F1000138
:1008F00092185B411A4301D120F0010010BD2DE98F
:10090000F04D92469B4611B1B1FA81F202E0B0FA85
:1009100080F22032904600F011F904460F4640EA7A
:100920000A0041EA0B0153465A46084313D01146C8
:1009300053EA010019D0C8F140025046FFF723FCEA
:1009400005460E4650465946424600F0F7F8084321
:1009500005D0012004E020463946BDE8F08D002096
:10096000054346EAE0762C4337430A986305E40AD8
:10097000A0EB08000022FD0A44EA47540A3002D5E1
:1009800000200146E9E7010510196941DDE9084544
:1009900000196941BDE8F04DA2E72DE9FE4F804600
:1009A00081EA0300C00F0C46009021F0004123F0C3
:1009B0000045B8EB0200A94105D2404621469046C9
:1009C0001C460B46024623F00040104347D0270D3B
:1009D000C7F30A00C3F30A510290401A019040285D
:1009E0006BDAC3F3130040F4801B0098924620B1E9
:1009F0000023D2EB030A63EB0B0B01985946C0F1BD
:100A00004002504600F09AF806460D4650465946B8
:100A1000019A00F0A2F810EB08006141002487EA77
:100A2000115284EAE7731A4340D0009A62B3019AE4
:100A3000012A4FEA075215DC001B61EB02014FF05F
:100A4000004202EA0752CDE90042001C41F5801144
:100A500032462B46FFF753FF03B0BDE8F08F404608
:100A60002146F9E7001B61EB0201001C41F58013F0
:100A700000185B412018A2F5001747EB030140EA7C
:100A8000D570B6196D4111E06D084FEA360645EA9A
:100A9000C0754FEA0752001B61EB0201001C41F5D3
:100AA000801149084FEA30000019514132462B4667
:100AB00003B0BDE8F04FFFF713BF009801224000DC
:100AC0000023D0EB020263EBE073009821464FEA6B
:100AD000E074B8EB000061EB0401E9E783F0004348
:100AE0005BE781F0004158E7C1F30A52C1F31301FB
:100AF00040F2FF3341F480119A4202DA00200146AD
:100B0000704740F233439A42A2F2334202DC52422F
:100B1000FFF739BB00F012B8064C074D06E0E0685D
:100B200040F0010394E8070098471034AC42F6D334
:100B3000FFF7E0FA706D0008906D0008202A04DBD2
:100B4000203A00FA02F1002070479140C2F12003E0
:100B500020FA03F3194390407047202A06DBCB1795
:100B6000203A41FA02F043EAE07306E041FA02F368
:100B7000D040C2F120029140084319467047C0B2EC
:100B80004FF4F05100F096B92DE9F34F8BB04FF0D0
:100B9000000801F10C000C464FF0010B46460DF128
:100BA000080A01906269012101989047051E2DD025
:100BB000252D2CD0216A8847C0B162690121019896
:100BC0009047216A88470028F7D1411E6269019841
:100BD000904700E0761CA1690B988847216A8847F6
:100BE0000028F7D1E1690B988847DBE7A1690B98EA
:100BF00088470746A84201D1761CD3E7E1690B98E4
:100C000088477F1C02D1B8F1000F6FD046E1002762
:100C100062693D463946019890472A2804D16269A5
:100C20000121019890470125DFF884926269012132
:100C300001989047A0F130010A290AD24F45E5DC1E
:100C400007EB870100EB4107303FDFD445F010058B
:100C5000ECE7E90601D46FF000476C280AD04C2875
:100C600014D0682815D06A280DD074281CD07A2892
:100C70001AD01DE062690121019890476C2802D0CA
:100C800045F0040514E045F002050DE045F02005AF
:100C90000AE06269012101989047682802D045F076
:100CA000080505E045F40065626901210198904757
:100CB000C4E9015765283DD019DC58287AD00CDCEE
:100CC000452837D004DC252826D0412831D131E011
:100CD00046282FD047282CD12CE05B2877D06128DC
:100CE00028D063287CD0642823D15AE0D0E06F2834
:100CF00048D008DC66281DD067281BD0692821D081
:100D00006E2816D127E0702845D0732868D0752842
:100D100047D078280DD14DE0A1690B98884705464A
:100D200025283FF469AFE1690B9888476D1C3FF4B3
:100D30006AAFB3E023466A466FF001000B99AFF348
:100D400000809EE045F040006060A80723464FF019
:100D5000000236D43EE0E8077FF447AF2068011D6B
:100D600021600068290501D506701BE7290701D518
:100D7000068017E7A90703D5F117C0E9006111E75D
:100D800006600FE745F040006060A80723464FF07B
:100D9000080216D41EE040F60E0125EA010060604C
:100DA00016E045F040006060A80723464FF00A02B5
:100DB00007D40FE045F040006060A80708D523463F
:100DC00010226FF001000B99FFF746FA59E007E097
:100DD000234610226FF001000B99FFF7E8FA50E06C
:100DE0004FF000094F464B46632802D05B2806D0DF
:100DF00040E0E80601D40120A06001273AE06269E2
:100E00000121019890475E2805D14FF001096269E0
:100E1000494601989047216939B900210A4653464D
:100E200043F82120491C0829FADBB0B3216969B9CC
:100E3000C11700EBD16253110AEB830122F01F02AC
:100E4000821A01200B68904003430B606269012104
:100E5000019890475D28E8D1B9F1000F09D0002032
:100E6000514651F82020D24341F82020401C082848
:100E7000F7DB02AB224600976FF001000B99FFF7FA
:100E80003CFB00280CDA401C08D1BBF1000F05D058
:100E90004FF0FF300DB0BDE8F08FFFE74046F9E7B7
:100EA000E90701D108F1010806444FF0000B79E68B
:100EB000CCCCCC0C7F2801D9002208E0064A02EBFA
:100EC0005002C007127800D1120902F00F0201206F
:100ED0009040084070470000306D000800BFFEE7FA
:100EE00070B50246002011E012F8013B08240AE028
:100EF00080EA030606F0010540100DB180F08C0079
:100F00005B10651EECB2002CF2D100BF0B1EA1F1EC
:100F10000104E1B2E8D170BD10B5024800F0DEF87E
:100F200010BD00007001002010B5024800F0D6F896
:100F300010BD0000A801002010B50468636044687B
:100F4000102C04D10468A2600468E16003E0046826
:100F5000A1600468E26010BD7047000010B5C821B0
:100F60000448FFF739F90020034908800349088045
:100F700010BD0000E00100201A0000201C0000202D
:100F800010B5062000F09EFD012000F07FFB10BD93
:100F900000BFFEE70021074AD1610749096941F016
:100FA0000401054A11611146096941F040011161CE
:100FB0007047000078000020002002400021074A0E
:100FC000D1610749096941F00201054A11611146E1
:100FD0004861096941F040011161704778000020C3
:100FE000002002400022054BDA61054A126942F0F6
:100FF0000102034B1A610180704700007800002055
:10100000002002401748C06800F0100028B11648C0
:10101000C06940F002001449C8611248C06800F07D
:10102000040028B11048C06940F001000E49C861B1
:101030000C48C06900F0010068B10B48C06940F07D
:1010400004000949C86100BF0648C06920F00100DA
:101050000449C86100BF00BF14200249C86000BF36
:1010600070470000002002407800002070B5044660
:1010700000F0AEFC054609E0601C38B124B100F078
:10108000A7FC401BA04201D9032070BD1248C068D4
:1010900000F001000028EFD10F48C06800F02000E8
:1010A00020B100BF20200C49C86000BF0A48C068BA
:1010B00000F0100048B90848C06900F0010020B9EC
:1010C0000548C06800F0040018B1FFF79BFF01203D
:1010D000DBE70020D9E700000020024010B50446FD
:1010E000C1480068C04A08322168914201D10821F4
:1010F00027E0BD4A1C322168914201D1802120E0C5
:10110000B94A30322168914201D1C91419E0B64A76
:1011100044322168914202D14FF4004111E0B24AB9
:1011200058322168914202D14FF4002109E0AE4AC1
:101130006C322168914202D14FF4000101E04FF07E
:101140000061084000284DD020680068C0F3C0004E
:1011500090B32068006820F0080021680860A24968
:1011600008312068884201D1082028E09E491C31BE
:101170002068884201D1802021E09B4930312068DD
:10118000884201D1C0141AE097494431206888424E
:1011900002D14FF4004012E0934958312068884250
:1011A00002D14FF400200AE08F496C312068884258
:1011B00003D14FF4000002E014E04FF000608A49D0
:1011C0004860606B40F001006063042084F82100F7
:1011D00000BF002084F8200000BF206B10B1204623
:1011E000216B8847804800687F4A08322168914215
:1011F00001D1042127E07C4A1C322168914201D1AF
:10120000402120E0784A30322168914201D109150D
:1012100019E0754A44322168914202D14FF480416D
:1012200011E0714A58322168914202D14FF4802175
:1012300009E06D4A6C322168914202D14FF480017D
:1012400001E04FF080610840A0B320680068C0F35F
:10125000800078B32068006800F0200028B920687A
:10126000006820F00400216808605F4908312068A8
:10127000884201D1042028E05B491C312068884263
:1012800001D1402021E0584930312068884201D105
:1012900000151AE0544944312068884202D14FF4C5
:1012A000804012E0504958312068884203D14FF401
:1012B00080200AE013E04C496C312068884202D15A
:1012C0004FF4800001E04FF08060474948601120F2
:1012D00084F82100E06A10B12046E16A884742485C
:1012E0000068414A08322168914201D1022127E079
:1012F0003D4A1C322168914201D1202120E03A4A26
:1013000030322168914201D1491519E0364A443200
:101310002168914202D14FF4005111E0324A583213
:101320002168914202D14FF4003109E02E4A6C321B
:101330002168914202D14FF4001101E04FF0007199
:101340000840A0B320680068C0F3400078B320686C
:10135000006800F0200028B92068006820F0020032
:1013600021680860204908312068884201D10220A4
:1013700028E01D491C312068884201D1202021E04D
:10138000194930312068884201D140151AE01649C8
:1013900044312068884202D14FF4005012E01249D3
:1013A00058312068884203D14FF400300AE01AE037
:1013B0000D496C312068884202D14FF4001001E0E1
:1013C0004FF0007008494860606B6063012084F84A
:1013D000210000BF002084F8200000BFA06A10B1E7
:1013E0002046A16A884710BD000002400146002245
:1013F00009B90120704791F8210010B9002081F847
:101400002000022081F821000868026843F6F0708D
:101410008243D1E901031843CB6818430B69184391
:101420004B6918438B691843CB691843024308681A
:10143000026000204863012081F821000020D9E7E4
:101440002DE9F04104460D4616461F4600BF94F8AC
:101450002000012802D10220BDE8F081012084F89B
:10146000200000BF022084F821002068006820F0DE
:101470000100216808603B46324629462046FFF7B6
:101480005BFD2068006840F0020021680860206869
:10149000006840F00400216808602068006840F09F
:1014A0000800216808602068006840F00100216899
:1014B00008600020D0E731B5002400F089FA044626
:1014C00000BF00F085FA001B00998842F9D338BDAF
:1014D0002DE9F04104460E460127002500BF2648AD
:1014E000007E012802D10220BDE8F08101202249BE
:1014F000087600BF2068022813D14CF25030FFF765
:10150000B5FD90BB0120FFF745FD4CF25030FFF7D1
:10151000ADFD07461948006920F00400174908612D
:1015200023E04CF25030FFF7A1FDF0B94FF0FF304F
:101530003060A56812E02846FFF740FD4CF25030BD
:10154000FFF794FD07460D48006920F002000B49A3
:1015500008610FB1356007E005F58065D4E9021038
:1015600001EB8020A842E6D800BF00BF002002495E
:10157000087600BF3846B7E7780000200020024018
:101580000348006940F0800001490861002070476D
:10159000002002402DE9FE4F05468B46174698462F
:1015A000012600240020029000BF2448007E01286C
:1015B00002D10220BDE8FE8F01202049087600BF3D
:1015C0004CF25030FFF752FD064686BB012D02D18A
:1015D0000120029006E0022D02D10220029001E0DB
:1015E0000420029000241EE02201B946C24648466B
:1015F0005146FEF7C8FD80B20190022000FB04B006
:1016000000900199FFF7EEFC4CF25030FFF72EFDF1
:1016100006460B48006920F001000949086106B13F
:1016200004E0601CC4B202988442DDDB00BF00BF4E
:1016300000200249087600BF3046BBE77800002052
:10164000002002400748006900F0800028B10648E9
:10165000044948600548486001E0012070470020C7
:10166000FCE700000020024023016745AB89EFCD75
:1016700010B50446012C02D104F0CAFA04E0B4F516
:10168000804F01D104F000F910BD000010B50446F0
:1016900004480068204020B1024804602046FFF75B
:1016A000E7FF10BD140401402DE9F847034600246C
:1016B000002000258446002700226EE14FF001083B
:1016C00008FA02F4D1F8008008EA0400A0427DD1B3
:1016D000DFF8D0A2D1F80480A8EB0A09D0453AD0AF
:1016E00014DCB8F1030F50D009DCB8F1000F31D091
:1016F000B8F1010F1CD0B8F1020F49D120E0B8F1C8
:10170000110F18D0B8F1120F42D11EE0B9F5881FA1
:1017100025D006DCB9F5803F20D0B9F5801F37D140
:101720001AE0B9F5001F18D0B9F5041F30D117E041
:10173000D1F80CC02DE0D1F80C8008F1040C28E0A1
:10174000D1F80C8008F1080C23E0D1F80C8008F1E6
:101750000C0C1EE000BF00BF00BF00BF00BF00BFF9
:10176000D1F80880B8F1000F02D14FF0040C0BE063
:10177000D1F80880B8F1010F03D14FF0080C1C61BB
:1017800002E04FF0080C5C6103E04FF0000C00E059
:1017900000BF00BFFF2801D8984601E003F104080C
:1017A0004646FF2802D84FEA820803E0A2F1080863
:1017B0004FEA88084746D6F800804FF00F0909FA2B
:1017C00007F928EA09080CFA07F900E088E048EA76
:1017D0000908C6F80080D1F8048008F08058B8F1F4
:1017E000805F7DD100BFDFF8C081D8F8188048F055
:1017F0000108DFF8B491C9F81880C846D8F81880F5
:1018000008F00108CDF8008000BF00BF4FEAB938EA
:101810004FEA920958F829504FEA82784FEA18792E
:101820004FF00F0808FA09F825EA0805DFF87C816F
:10183000434502D14FF0000816E0DFF874814345BC
:1018400002D14FF001080FE0DFF86881434502D173
:101850004FF0020808E0DFF86081434502D14FF005
:10186000030801E04FF004084FEA82794FEA197942
:1018700008FA09F848EA0505DFF840814FEA9209BD
:1018800048F82950D1F8048008F48038B8F5803F32
:101890000AD1DFF82C81D8F8008048EA0008DFF888
:1018A0002091C9F8008009E0DFF81481D8F80080A1
:1018B00028EA0008DFF80891C9F80080D1F8048010
:1018C00008F40038B8F5003F10D1DFF8F48008F1D3
:1018D0000408D8F8008048EA0008DFF8E49000E047
:1018E0005AE009F10409C9F800800DE0DFF8D08062
:1018F00008F10408D8F8008028EA0008DFF8C09052
:1019000009F10409C9F80080D1F8048008F48018AE
:10191000B8F5801F0ED1DFF8A88008F10808D8F8C4
:10192000008048EA0008DFF8989009F10809C9F832
:1019300000800DE0DFF8888008F10808D8F8008002
:1019400028EA0008DFF8789009F10809C9F8008052
:10195000D1F8048008F40018B8F5001F0ED1DFF8A4
:10196000608008F10C08D8F8008048EA0008DFF829
:10197000509009F10C09C9F800800DE0DFF84080B3
:1019800008F10C08D8F8008028EA0008DFF8309049
:1019900009F10C09C9F80080521C102AFFF48EAE20
:1019A000BDE8F88700001110001002400008014057
:1019B000000C0140001001400014014008000140EB
:1019C000000401400AB1016101E00B0403617047AA
:1019D00001480068704700000000002002480068CD
:1019E000401C0149086070470000002010B50848FD
:1019F000006840F0100006490860032000F0BCF8C1
:101A0000002000F007F800F017F8002010BD0000DB
:101A10000020024070B5044600F00EFA4FF47A71CF
:101A2000B0FBF1F5284601F0DCF900222146501EFA
:101A300000F063F8002070BD08B500BF1F48806942
:101A400040F001001D4988610846806900F00100EE
:101A5000009000BF00BF032000F08EF80022114666
:101A60006FF00B0000F049F8002211466FF00A00F9
:101A700000F043F8002211466FF0090000F03DF835
:101A800000221146501F00F038F800221146101FA6
:101A900000F033F800221146901E00F02EF80022CC
:101AA0001146501E00F029F80548406820F0E0601B
:101AB00040F080600249486008BD0000001002400C
:101AC0000000014000BF00F01F0201219140034AC5
:101AD000430942F8231000BF7047000080E200E095
:101AE00000BF00F01F02012191404209920002F163
:101AF000E022C2F8001100BF70472DE9F05F804678
:101B00000D461646002701F089FD074639462A464C
:101B1000334601F00700C0F1070ABAF1040F02D9F9
:101B20004FF0040A01E0C0F1070AD14600F1040AAF
:101B3000BAF1070F02D24FF0000A01E0A0F1030A48
:101B4000D4464FF0010A0AFA09FAAAF1010A0AEA90
:101B5000020A0AFA0CFA4FF0010B0BFA0CFBABF17C
:101B6000010B0BEA030B4AEA0B042146404601F045
:101B70005DFDBDE8F09F000000BF00F00702064BCE
:101B800019684FF6FF031940044B0B4343EA022147
:101B9000014B196000BF70470CED00E00000FA0532
:101BA00070B504460D4600269F48006800F0070007
:101BB000A8420ED29C48006820F0070028439A49AA
:101BC00008600846006800F00700A84201D0012024
:101BD00070BD207800F00200022807D193484068C9
:101BE00020F0F000A168084390494860207800F098
:101BF000010000287CD0606801282DD1202001033D
:101C000091FAA1F1B1FA81F108430121B1EB601F12
:101C100002D1864800680FE02020010391FAA1F16B
:101C2000B1FA81F108430221B1EB601F02D17F4874
:101C3000006A01E07D48406A20210A0392FAA2F27C
:101C4000B2FA82F2114301F01F02012191400840D3
:101C5000002860D10120BBE7606802282CD1202039
:101C6000010591FAA1F1B1FA81F108430121B1EB2B
:101C7000601F02D16D4800680FE02020010591FA35
:101C8000A1F1B1FA81F108430221B1EB601F02D149
:101C90006648006A01E06548406A20210A0592FA18
:101CA000A2F2B2FA82F2114301F01F020121914027
:101CB000084078BB01208BE72020022191FAA1F196
:101CC000B1FA81F108430121B1EB601F02D15748FD
:101CD000006810E02020022191FAA1F1B1FA81F10F
:101CE00008430221B1EB601F03D15048006A02E0B3
:101CF00054E04E48406A2021022292FAA2F2B2FA3F
:101D000082F2114301F01F0201219140084008B9FD
:101D100001205DE7FFE74548406820F00300616867
:101D2000084342494860FFF753FE064660680128B1
:101D300010D108E0FFF74CFE801B41F28831884249
:101D400001D9032044E73948406800F00C0004281A
:101D5000F0D123E06068022810D108E0FFF738FED8
:101D6000801B41F28831884201D9032030E72F4897
:101D7000406800F00C000828F0D10FE008E0FFF701
:101D800027FE801B41F28831884201D903201FE7DA
:101D90002648406800F00C000028F0D12248006876
:101DA00000F00700A8420ED91F48006820F0070085
:101DB00028431D4908600846006800F00700A84253
:101DC00001D0012004E7207800F00400042807D1A6
:101DD0001648406820F4E060E16808431349486011
:101DE000207800F00800082808D11048406820F446
:101DF0006050216940EAC1000C49486000F04EF88B
:101E00000A49496801F0F001F02292FAA2F2B2FA0E
:101E100082F2D140064A515CC84006490860002061
:101E2000FFF7F8FD0020D3E600200240001002403A
:101E3000186D000808000020014800687047000085
:101E40000800002000B5FFF7F7FF0749496801F4D3
:101E5000E0614FF4E06292FAA2F2B2FA82F2D1406B
:101E6000024A515CC84000BD00100240286D0008C5
:101E700000B5FFF7E1FF0749496801F460514FF4ED
:101E8000605292FAA2F2B2FA82F2D140024A515C56
:101E9000C84000BD00100240286D0008F0B585B0B4
:101EA0000FF28C0C9CE8E01001A8A0E8E01024A53B
:101EB0002D68009500210024002200230020214DE0
:101EC000696801F00C056DB3042D02D0082D28D1EE
:101ED00001E01D4828E001F470154FF4701696FAE1
:101EE000A6F6B6FA86F6F54001AE735D01F48035CC
:101EF00095B1144D6D6805F400354FF4003696FA2F
:101F0000A6F6B6FA86F6F5401DF805400E4DB5FB6F
:101F1000F4F505FB03F202E00C4D03FB05F210465D
:101F200002E000BF084800BF00BF05B0F0BD0000E0
:101F300002030405060708090A0B0C0D0E0F10100A
:101F4000010200000010024000127A0000093D006A
:101F500038B504460025207800F0010000287CD028
:101F6000F848406800F00C0004280CD0F5484068A0
:101F700000F00C00082837D1F248406800F48030A7
:101F8000B0F5803F30D12020010391FAA1F1B1FAE0
:101F900081F108430121B1EB601F02D1E9480068DB
:101FA0000FE02020010391FAA1F1B1FA81F1084379
:101FB0000221B1EB601F02D1E248006A01E0E14872
:101FC000406A20210A0392FAA2F2B2FA82F2114385
:101FD00001F01F020121914008400028BFD0606835
:101FE00000283AD1012038BD00BF6068B0F5803FBD
:101FF00006D1D448006840F48030D249086028E017
:10200000606858B9CF48006820F48030CD49086036
:102010000846006820F4802008601AE06068B0F587
:10202000A02F0BD1C748006840F48020C549086044
:102030000846006840F4803008600AE0C148006843
:1020400020F48030BF4908600846006820F48020F2
:10205000086000BF6068C8B300E06FE0FFF7B8FC3D
:10206000054606E0FFF7B4FC401B642801D90320B5
:10207000B9E72020010391FAA1F1B1FA81F10843F7
:102080000121B1EB601F02D1AE4800680FE02020B3
:10209000010391FAA1F1B1FA81F108430221B1EBF8
:1020A000601F02D1A748006A01E0A648406A2021CB
:1020B0000A0392FAA2F2B2FA82F2114301F01F026D
:1020C0000121914008400028CCD037E0FFE7FFF71E
:1020D0007FFC054606E0FFF77BFC401B642801D926
:1020E000032080E72020010391FAA1F1B1FA81F1E8
:1020F00008430121B1EB601F02D1924800680FE054
:102100002020010391FAA1F1B1FA81F108430221E3
:10211000B1EB601F02D18B48006A01E08948406A38
:1021200020210A0392FAA2F2B2FA82F2114301F0DC
:102130001F020121914008400028CCD1207800F0F6
:10214000020002284ED17F48406800F00C0050B1D8
:102150007C48406800F00C00082844D17948406869
:1021600000F4803078BB2020022191FAA1F1B1FA6D
:1021700081F108430121B1EB601F02D17148006871
:102180000FE02020022191FAA1F1B1FA81F1084378
:102190000221B1EB601F02D16A48006A01E0694880
:1021A000406A2021022292FAA2F2B2FA82F211438C
:1021B00001F01F0201219140084028B12069012847
:1021C00002D001200FE70EE05E48006820F0F80022
:1021D000F82292FAA2F2B2FA82F2616991400843BF
:1021E0005849086091E02069F0B3012090FAA0F10D
:1021F000B1FA81F1544A42F82100FFF7E9FB0546A4
:1022000006E0FFF7E5FB401B022801D90320EAE6C0
:102210002020022191FAA1F1B1FA81F108430121B4
:10222000B1EB601F02D1474800680FE02020022177
:1022300091FAA1F1B1FA81F108430221B1EB601FDB
:1022400002D14048006A01E03E48406A2021022253
:1022500092FAA2F2B2FA82F2114301F01F020121B6
:1022600091400840002800E00FE0CAD035480068DF
:1022700020F0F800F82292FAA2F2B2FA82F2616932
:10228000914008432F4908603FE00020012191FA66
:10229000A1F1B1FA81F12C4A42F82100FFF798FB35
:1022A000054606E0FFF794FB401B022801D90320F6
:1022B00099E62020022191FAA1F1B1FA81F10843B7
:1022C0000121B1EB601F02D11E4800680FE0202001
:1022D000022191FAA1F1B1FA81F108430221B1EB97
:1022E000601F02D11748006A01E01648406A2021A9
:1022F000022292FAA2F2B2FA82F2114301F01F0214
:102300000121914008400028CCD1207800F008003D
:1023100008284BD1A069A8B3012191FAA1F0B0FA25
:1023200080F0094A02EB8000C0F88014FFF750FBF0
:1023300005460BE0FFF74CFB401B022806D90320A3
:1023400051E60000001002400000424260200221DD
:1023500091FAA1F1B1FA81F108430121B1EB601FBB
:1023600002D1F948006810E06020022191FAA1F141
:10237000B1FA81F108430221B1EB601F03D1F248A9
:10238000006A02E013E0F048406A6021022292FAFB
:10239000A2F2B2FA82F2114301F01F020121914030
:1023A00008400028C6D00120FFF785F841E0002052
:1023B000012191FAA1F1B1FA81F1E44A02EB810124
:1023C000C1F88004FFF704FB054606E0FFF700FBB9
:1023D000401B022801D9032005E66020022191FA62
:1023E000A1F1B1FA81F108430121B1EB601F02D1E3
:1023F000D54800680FE06020022191FAA1F1B1FAFE
:1024000081F108430221B1EB601F02D1CE48006A7E
:1024100001E0CD48406A6021022292FAA2F2B2FAAB
:1024200082F2114301F01F0201219140084000286F
:10243000CCD1207800F00400042875D100BFC24838
:10244000C06940F08050C049C8610846C06900F0CA
:102450008050009000BF00BFBD48006840F480700D
:10246000BB490860FFF7B4FA054606E0FFF7B0FA8B
:10247000401B642801D90320B5E5B548006800F485
:1024800080700028F2D000BFE068012806D1AE4875
:10249000006A40F00100AC49086227E0E06858B9E2
:1024A000A948006A20F00100A74908620846006AAE
:1024B00020F00400086219E0E06805280BD1A2486A
:1024C000006A40F00400A04908620846006A40F033
:1024D000010008620AE09C48006A20F001009A4965
:1024E00008620846006A20F00400086200BFE06845
:1024F000D0B3FFF76DFA054608E0FFF769FA401B15
:1025000041F28831884201D903206CE54020022144
:1025100091FAA1F1B1FA81F108430121B1EB601FF9
:1025200003D18948006810E058E04020022191FA68
:10253000A1F1B1FA81F108430221B1EB601F02D190
:102540008148006A01E08048406A4021022292FAF4
:10255000A2F2B2FA82F2114301F01F02012191406E
:1025600008400028C9D039E0FFE7FFF731FA0546F7
:1025700008E0FFF72DFA401B41F28831884201D96B
:10258000032030E54020022191FAA1F1B1FA81F156
:1025900008430121B1EB601F02D16B4800680FE0D6
:1025A0004020022191FAA1F1B1FA81F10843022100
:1025B000B1EB601F02D16448006A01E06248406AE2
:1025C0004021022292FAA2F2B2FA82F2114301F001
:1025D0001F020121914008400028CAD1E06900286B
:1025E00073D05948406800F00C0008286ED0E069AC
:1025F00002286CD100204FF0807191FAA1F1B1FA5C
:1026000081F1524A42F82100FFF7E2F9054606E05F
:10261000FFF7DEF9401B022801D90320E3E4202064
:10262000010591FAA1F1B1FA81F108430121B1EB61
:10263000601F02D1444800680FE02020010591FA94
:10264000A1F1B1FA81F108430221B1EB601F02D17F
:102650003D48006A01E03C48406A20210A0592FAA0
:10266000A2F2B2FA82F2114301F01F02012191405D
:1026700008400028CCD1206AB0F5803F07D132480D
:10268000406820F40030A16808432F494860D4E92D
:10269000080108432C49496821F4741108432A4968
:1026A00048600121080690FAA0F0B0FA80F0274AAD
:1026B00042F82010FFF78CF9054609E0FFF788F98A
:1026C000401B022804D903208DE479E076E02CE059
:1026D0002020010591FAA1F1B1FA81F1084301210D
:1026E000B1EB601F02D1184800680FE020200105FF
:1026F00091FAA1F1B1FA81F108430221B1EB601F17
:1027000002D11148006A01E00F48406A20210A0501
:1027100092FAA2F2B2FA82F2114301F01F020121F1
:10272000914008400028C9D04AE000204FF0807155
:1027300091FAA1F1B1FA81F1044A42F82100FFF7C0
:1027400047F905460DE0000000100240000042423B
:1027500000700040FFF73CF9401B022801D903201C
:1027600041E42020010591FAA1F1B1FA81F1084379
:102770000121B1EB601F02D1124800680FE0202058
:10278000010591FAA1F1B1FA81F108430221B1EBFF
:10279000601F02D10B48006A01E00A48406A20210C
:1027A0000A0592FAA2F2B2FA82F2114301F01F0274
:1027B0000121914008400028CCD101E0012012E421
:1027C000002010E40010024010B504460CB90120AE
:1027D00010BD94F8510010B9204600F03BF80220DB
:1027E00084F851002068006820F0400021680860EB
:1027F000D4E901010843E16808432169084361699C
:102800000843218B01F400710843E1690843216A00
:102810000843A16A0843216808600421A06901EA0D
:102820001040616A0843216848602168E06A0861D5
:102830002068C06920F400602168C8610020044954
:1028400008706065012084F851000020C0E7000096
:102850000400002010B586B0044613492068884261
:1028600020D100BF1148806940F480500F49886131
:102870000846806900F48050019000BF00BFA0208E
:102880000290022003900320059002A90848FEF759
:102890000BFF4020029000200390049002A90448FE
:1028A000FEF702FF06B010BD0030014000100240EC
:1028B00000080140F8B504460E4615461F4694F838
:1028C0005100012874D106B10DB90120F8BD00BF37
:1028D00094F85000012801D10220F7E7012084F884
:1028E000500000BF122084F851000020606526636C
:1028F000A586E586E064A064A063A087E087A06A5F
:10290000B0F5005F0DD100BF2068006820F40050D2
:10291000216808602068006840F400502168086061
:1029200000BFA068B0F5004F05D12068006840F4F2
:102930008040216808602068006800F0400040285E
:1029400005D02068006840F0400021680860E06819
:1029500078BB606810B1E08E012808D1216B481C5B
:10296000206308782168C860E08E401EE08611E090
:102970003B4600220221204600F06DFE08B10320F4
:10298000A4E7216B481C206308782168C860E08EAA
:10299000401EE086E08E0028EADCA06AB0F5005F09
:1029A00038D12068006840F480502168086031E028
:1029B0005EE0FFE7606810B1E08E012809D1206B6E
:1029C00000882168C860206B801C2063E08E401E58
:1029D000E08612E03B4600220221204600F03BFE4A
:1029E00008B1032072E7206B00882168C860206B63
:1029F000801C2063E08E401EE086E08E0028E9DC2B
:102A0000A06AB0F5005F05D12068006840F48050EE
:102A1000216808603B4600220221204600F01BFE90
:102A200028B1606D40F01000606503204EE73B4622
:102A300001228021204600F00EFE28B1606D40F09A
:102A400010006065032041E7A06840B900BF20681E
:102A5000C068009020688068009000BF00BF01201F
:102A600084F8510000BF002084F8500000BF2DE71B
:102A700002202BE72DE9F84304460E4617461D4673
:102A8000DDF820800020009094F85100012803D048
:102A900094F85100222876D10EB107B115B9012062
:102AA000BDE8F88300BF94F85000012801D102204E
:102AB000F6E7012084F8500000BF94F85100012887
:102AC00002D1322084F8510000206065A763A587F9
:102AD000E5872663A586E586A064E064A06AB0F574
:102AE000005F0DD100BF2068006820F4005021680D
:102AF00008602068006840F400502168086000BF4A
:102B00002068006800F04000402805D02068006878
:102B100040F0400021680860E068B0F5006F75D1B2
:102B2000606830B16068B0F5827F0CD1E08E01281A
:102B300009D1206B00882168C860206B801C20634D
:102B4000E08E401EE086E08EF0B9A06AB0F5005F2E
:102B500005D12068006840F4805021680860434631
:102B600000220121204600F076FD08B1032097E7FE
:102B70002068C068A16B0880A06B801CA063E08FF8
:102B8000401EE087C7E015E131E043460022022104
:102B9000204600F060FD08B1032081E7206B00882B
:102BA0002168C860206B801C2063E08E401EE08698
:102BB000E08E48B9A06AB0F5005F05D120680068D2
:102BC00040F48050216808604346002201212046DD
:102BD00000F041FD08B1032062E72068C068A16BE6
:102BE0000880A06B801CA063E08F401EE087E08E11
:102BF0000028CADC60680028C4D1434600220121B5
:102C0000204600F028FD10B1032049E70AE02068C3
:102C1000C068A16B0880A06B801CA063E08F401E81
:102C2000E08778E0606830B16068B0F5827F0BD1F2
:102C3000E08E012808D1216B481C206308782168A8
:102C4000C860E08E401EE086E08ED0B9A06AB0F584
:102C5000005F05D12068006840F48050216808605A
:102C6000434600220121204600F0F5FC08B1032074
:102C700016E72068C068A16B0870E08F401EE087EF
:102C800049E030E0434600220221204600F0E3FC08
:102C900008B1032004E7216B481C206308782168F1
:102CA000C860E08E401EE086E08E48B9A06AB0F5AC
:102CB000005F05D12068006840F4805021680860FA
:102CC000434600220121204600F0C5FC08B1032044
:102CD000E6E62068C068C1B2A26B501CA063117008
:102CE000E08F401EE087E08E0028CBDC606890B962
:102CF000434600220121204600F0ADFC08B103202C
:102D0000CEE62068C068C1B2A26B501CA0631170EF
:102D1000E08F401EE087A06AB0F5005F12D1434605
:102D200000220121204600F096FC28B1606D40F0A1
:102D3000020060650320B3E62068C06880B200909E
:102D4000BDF80000434601228021204600F083FCAC
:102D500028B1606D40F0100060650320A0E60120FE
:102D600084F85100A06AB0F5005F1DD1206880682A
:102D7000C0F30010C0B1606D40F00200606500BF9C
:102D80002068006820F4005021680860206800680E
:102D900040F400502168086000BF00BF002084F8A4
:102DA000500000BF01207BE600BF002084F85000E7
:102DB00000BF75E6022073E6042808D14FF0E02139
:102DC000096941F004014FF0E022116107E04FF082
:102DD000E021096921F004014FF0E0221161704700
:102DE000704770B504462546681EB0F1807F01D358
:102DF00001200FE0681E4FF0E02148610F214FF0E5
:102E0000FF3000F013FC00204FF0E0218861072024
:102E10000861002070BD10B5FFF7E2FF10BD000093
:102E200010B5044601220549054800F059F9012270
:102E30000449054800F054F910BD000027000020A7
:102E40003001002026000020F0000020F8B50446E4
:102E5000002500262068006800F001052068C06891
:102E600000F4807625B11EB1E06B40F00100E06314
:102E700020680068C0F340052068406900F0010642
:102E800025B11EB1E06B40F00400E06320680068EB
:102E9000C0F3800525B11EB1E06B40F00200E06395
:102EA00020680068C0F3C00525B11EB1E06B40F09A
:102EB0000800E06320680068C0F340152068C0681F
:102EC00000F020061DB116B1204600F008FD206874
:102ED0000068C0F3C0152068C06800F080061DB10E
:102EE00016B1204600F03EFE20680068C0F3801551
:102EF0002068C06800F040061DB116B1204600F001
:102F0000D6FCE06B70B100BF2068006800902068BC
:102F10004068009000BF00BF012084F839002046BF
:102F2000FFF77EFFF8BD10B504460CB9012010BDB7
:102F3000A06900B100E000BF94F8390028B9002072
:102F400084F83800204600F025F8022084F8390083
:102F50002068C06820F400502168C860204600F056
:102F60001DFD2068006920F49040216808612068F8
:102F7000406920F02A00216848612068C06840F458
:102F800000502168C8600020E063012084F8390007
:102F90000020CCE710B586B004464A492068884234
:102FA00045D100BF4848806940F480404649886167
:102FB0000846806900F48040019000BF00BF4815BA
:102FC0000290022003900320059002A93F48FEF7DB
:102FD0006BFB4FF48060029000200390049002A9E4
:102FE0003A48FEF761FB3A483A49086010204860C9
:102FF0000021384881608021C16000210161416168
:1030000081614FF44051C161FEF7F0F908B1FDF75D
:10301000BFFF00BF2F482063446200BF002211465B
:103020002520FEF76AFD2520FEF75AFD48E02A49D3
:103030002068884244D100BF2348C06940F4003072
:103040002149C8610846C06900F40030019000BF02
:1030500000BF04200290022003900320059002A9E3
:103060001A48FEF721FB08200290002003900490EC
:1030700002A91648FEF718FB15483C3017490860AE
:10308000102048600021154881608021C160002126
:103090000161416181614FF44051C161FEF7A6F9C0
:1030A00008B1FDF775FF00BF0C482063446200BF04
:1030B000002211462620FEF720FD2620FEF710FDF7
:1030C00006B010BD00380140001002400008014069
:1030D000440002407001002000440040A80100208C
:1030E00030B50346002493F83940012C01D0122C4E
:1030F00037D101B10AB9012030BD00BF93F83800C3
:10310000012801D10220F7E7012083F8380000BF31
:1031100099629A85DA850020D86393F839001228DD
:1031200003D1322083F8390002E0222083F83900ED
:1031300000BF002083F8380000BF1868C06840F462
:1031400080701D68E8601868406940F001001D68E3
:1031500068611868C06840F020001D68E8600020C1
:10316000CAE70220C8E7000010B5044631492068CC
:1031700088422DD1304800783049314A128888542D
:103180002F480088C72805DA2D480088401C2C49A4
:10319000088004E000202A490880FDF7DFFE294866
:1031A0000088401C27490880234800780A2809D154
:1031B000012025490870C82220492448FCF7F3FF64
:1031C000FDF7CCFE01221C492148FFF789FF30E0C2
:1031D0002049206888422CD11F4800781F49204A86
:1031E000128888541E480088C72805DA1C480088C1
:1031F000401C1B49088004E000201949088000F0A9
:1032000077FD18480088401C16490880124800784D
:103210000A2809D1012014490870C8220F4913480F
:10322000FCF7C1FF00F064FD01220B491048FFF7D5
:1032300057FF10BD0044004027000020E00100209F
:103240001A0000201C00002028000020700300202D
:10325000300100200038014026000020A802002094
:10326000160000201800002029000020380400204B
:10327000F00000202DE9F04704460D461646994619
:103280004FF0000894F83980B8F1010F02D0B8F17E
:10329000220F65D105B116B90120BDE8F08700BF46
:1032A00094F83800012801D10220F6E7012084F8C3
:1032B000380000BF0020E06394F83900222803D1D1
:1032C000322084F8390002E0122084F83900A68404
:1032D000E68428E0E08C401EE084A068B0F5805FC2
:1032E00014D14B4600228021204600F073FC08B127
:1032F0000320D2E72F463888C0F3080021684860D1
:10330000206908B9AD1C0EE06D1C0CE04B46002294
:103310008021204600F05EFC08B10320BDE715F8CF
:10332000010B21684860E08C0028D3DC4B4600226A
:103330004021204600F04EFC08B10320ADE794F890
:103340003900322803D1222084F8390002E001201C
:1033500084F8390000BF002084F8380000BF9CE7E3
:1033600002209AE7F7B504461546002794F839700D
:10337000012F01D0222F41D1019800B10DB90120B8
:10338000FEBD00BF94F83800012801D10220F7E704
:10339000012084F8380000BF01982062A584E584EC
:1033A0000020E06394F83900222803D1322084F809
:1033B000390002E0122084F839001148216B88623C
:1033C0001048216BC8621048216B086301AE236866
:1033D0001A1D31682B46206BFEF732F86FF0400063
:1033E000216808602068406940F0800021684861D9
:1033F00000BF002084F8380000BFC1E70220BFE70B
:103400006B380008A1380008493800087047704739
:1034100000BFFEE708B500BF0E48406940F001005C
:103420000C4948610846406900F00100009000BF67
:1034300000BF002211460E20FEF75FFB0E20FEF7B4
:103440004FFB002211461120FEF757FB1120FEF71B
:1034500047FB08BD0010024000B585B000BF3B48E7
:10346000806940F01000394988610846806900F0A1
:103470001000009000BF00BF00BF0846806940F008
:10348000200088610846806900F02000009000BF9D
:1034900000BF00BF0846806940F00400886108460C
:1034A000806900F00400009000BF00BF00BF084624
:1034B000806940F0080088610846806900F00800D3
:1034C000009000BF00BF00224FF4C0412048FEF72B
:1034D00079FA002210211F48FEF774FA0022022117
:1034E0001D48FEF76FFA4FF4C04001900120029092
:1034F0000220049001A91648FEF7D6F8102001908A
:10350000012002900220049001A91248FEF7CCF895
:1035100001200190114802900020039001A90E485B
:10352000FEF7C2F8022001900120029002200490D0
:1035300001A90948FEF7B8F8002211460620FEF757
:10354000DCFA0620FEF7CCFA05B000BD0010024000
:103550000010014000080140000C01400000211053
:1035600010B50E480E4908604FF482704860002183
:103570000B488160C160016141614FF4007181615C
:103580001821C16100210162416281620A21C16288
:10359000FFF71AF908B1FDF7FBFC10BD0030014040
:1035A0009800002010B50B480B4908604FF4E1303B
:1035B0004860002108488160C16001610C214161BF
:1035C00000218161C161FFF7AEFC08B1FDF7E0FCAD
:1035D00010BD000000380140F000002010B50B487D
:1035E0000B4908604FF4E1304860002108488160D1
:1035F000C16001610C21416100218161C161FFF75E
:1036000092FC08B1FDF7C4FC10BD0000004400406E
:103610003001002000BFFEE770470000024800684C
:10362000C0F30220704700000CED00E010B5002848
:1036300007DA0A07140E054A00F00F031B1FD454C3
:1036400003E00A07130E024A135410BD18ED00E000
:1036500000E400E070472DE9F04104460E461746AD
:103660001D464FF00008FEF7B3F98046002F3ED10B
:1036700032E0681C78B32DB1FEF7AAF9A0EB080080
:10368000A84229D92068406820F0E00021684860FD
:103690002068006820F0400021680860A06AB0F54A
:1036A000005F0DD100BF2068006820F40050216841
:1036B00008602068006840F400502168086000BF7E
:1036C000012084F8510000BF002084F8500000BFA2
:1036D0000320BDE8F081FFE7206880683040B042F9
:1036E00001D1012000E000200028C2D03BE030E002
:1036F000681C70B32DB1FEF76BF9A0EB0800A8426F
:1037000027D92068406820F0E000216848602068E0
:10371000006820F0400021680860A06AB0F5005FF2
:103720000DD100BF2068006820F4005021680860B7
:103730002068006840F400502168086000BF012044
:1037400084F8510000BF002084F8500000BF03201F
:10375000BFE7206880683040B04201D1012000E01E
:1037600000200028C4D10020B3E7704710B5FEF751
:1037700035F9FFF750FB10BD10B590B00120069051
:10378000000407900020089001200A9002200D906C
:10379000C1030E914FF4E0110F9106A8FEF7D8FB7C
:1037A00008B1FDF7F5FB0F200190022002900020E8
:1037B00003904FF48060049000200590022101A83E
:1037C000FEF7EEF908B1FDF7E3FBFEF735FB4FF42A
:1037D0007A71B0FBF1F42046FFF703FB0420FFF7FA
:1037E000EBFA00221146501EFEF787F910B010BD0B
:1037F0001148006840F001000F4908600846406821
:103800000E4908400C494860084600680C490840C9
:10381000094908600846006820F4802008600846CE
:10382000406820F4FE0048604FF41F008860C80321
:103830000449086070470000001002400000FFF8D3
:10384000FFFFF6FE08ED00E070B505466C6A00204B
:10385000E085E084012084F83900E06B40F010003E
:10386000E0632046FFF7DCFA70BD70B505466C6A70
:103870002868006800F0200070B90020E08420680B
:10388000406920F08000216848612068C06840F0ED
:1038900040002168C86002E02046FFF7B7FD70BD18
:1038A00070B50446656A2846FFF7B1FD70BD10B5D6
:1038B00004462068C06820F040002168C86094F881
:1038C0003900322803D1222084F8390002E0012097
:1038D00084F839002046FFF799FD002010BD70B52F
:1038E0000446002694F83960222E01D0322E52D19F
:1038F000A068B0F5805F13D1A56A206940B920683F
:103900004068C0F308002880A06A801CA06219E00B
:1039100020684068C0B22880A06A401CA06211E004
:10392000206938B920684068C1B2A26A501CA06200
:10393000117007E02068406800F07F01A26A501C07
:10394000A0621170E08D401E80B2E08508BB206847
:10395000C06820F020002168C86094F8390032283F
:1039600003D1122084F839000EE02068C06820F4EA
:1039700080702168C8602068406920F001002168DB
:103980004861012084F839002046FFF7EDFB002054
:1039900070BD0020FCE70220FAE700002DE9F041AD
:1039A000044600252068006920F44050E16808437F
:1039B000216808612169A0680843616940EA01053E
:1039C0002068C06841F20C61884328432168C860C0
:1039D0002068406920F44070A1690843216848616B
:1039E0005F49206888425CD1FEF742FA00EBC001D3
:1039F00001EB001061688900B0FBF1F6FEF738FAC0
:103A000000EBC00101EB001061688900B0FBF1F030
:103A10006421B0FBF1F000EBC00101EB0010A6EB5C
:103A20008000322101EB00106421B0FBF1F000F0C6
:103A3000F006FEF71DFA00EBC00101EB0010616813
:103A40008900B0FBF1F06421B0FBF1F006EB001649
:103A5000FEF70EFA00EBC00101EB0010616889006F
:103A6000B0FBF1F7FEF704FA00EBC00101EB001028
:103A700061688900B0FBF1F06421B0FBF1F000EB6C
:103A8000C00101EB0010A7EB8000322101EB001018
:103A90006421B0FBF1F000F00F0030442168886031
:103AA0005BE0FEF7CFF900EBC00101EB00106168AD
:103AB0008900B0FBF1F6FEF7C5F900EBC00101EBA0
:103AC000001061688900B0FBF1F06421B0FBF1F0F7
:103AD00000EBC00101EB0010A6EB8000322101EBEE
:103AE00000106421B0FBF1F000F0F006FEF7AAF937
:103AF00000EBC00101EB001061688900B0FBF1F040
:103B00006421B0FBF1F006EB0016FEF79BF900EB29
:103B1000C00101EB001061688900B0FBF1F7FEF70E
:103B200091F900EBC00101EB001061688900B0FB66
:103B3000F1F06421B0FBF1F000EBC00101EB0010EB
:103B4000A7EB8000322101EB00106421B0FBF1F003
:103B500000F00F00304421688860BDE8F08100006B
:103B60000038014010B50146002391F83930122B7E
:103B700001D0322B2CD18868B0F5805F0FD10A6A52
:103B80001088C0F308000C686060086918B9086AFA
:103B9000801C086209E0086A401C086205E00C6AA3
:103BA000601C086220780C686060C88C401E80B27F
:103BB000C88458B90868C06820F080000C68E060CC
:103BC0000868C06840F040000C68E060002010BD4C
:103BD0000220FCE72DE9F04104460E4617461D463B
:103BE0004FF00008FDF7F4FE80469FBB2BE0681CF9
:103BF00048B32DB1FDF7ECFEA0EB0800A84222D996
:103C00002068C06820F080002168C8602068C06813
:103C100020F020002168C8602068C06820F480700F
:103C20002168C8602068406920F00100216848616F
:103C3000012084F8390000BF002084F8380000BF5C
:103C40000320BDE8F081206800683040B04202D116
:103C5000012001E003E000200028C8D035E02AE080
:103C6000681C40B32DB1FDF7B3FEA0EB0800A842DD
:103C700021D92068C06820F080002168C8602068D1
:103C8000C06820F020002168C8602068C06820F467
:103C900080702168C8602068406920F001002168B8
:103CA0004861012084F8390000BF002084F8380002
:103CB00000BF0320C5E7206800683040B04201D152
:103CC000012000E000200028CAD10020B9E7000050
:103CD00010B50248FFF7BAF810BD0000F000002050
:103CE00010B50248FFF7B2F810BD00003001002007
:103CF00010B5C8210448FCF76FFA0020034908807A
:103D00000349088010BD0000A80200201600002012
:103D10001800002000BFFEE70FB4084B10B504A93F
:103D200002AA039800F0F0F8044602A9002000F06F
:103D300082FC204610BC5DF814FB000037460008EA
:103D400037B514460846064B6A46214600F0DCF8B3
:103D500004466946002000F06EFC20463EBD00008F
:103D60003746000802E008C8121F08C1002AFAD12D
:103D700070477047002001E001C1121F002AFBD1EB
:103D8000704700002DE9FF5F82B00021DDE90430BB
:103D9000020DDDF840B0034318D044F61050A2F2F3
:103DA000FF3242431514119801281FD0A5EB0B00D8
:103DB000401C5FEA000A4FF000064E4FDFF83891D2
:103DC000B046504615D5CAF1000413E011980124FD
:103DD0004AA3012801D16FEA0B010298119AC0E9A8
:103DE0000031C0E9024206B0BDE8F09FCBF100000F
:103DF000DFE704460021404A491842EB0450CDE970
:103E0000001012E0E00707D032463B4640464946E4
:103E1000FCF7E3FB8046894632463B46104619468E
:103E2000FCF7DBFB06460F466410002CEAD1DDE907
:103E30000401DDE90023BAF1000F06DAFCF7CDFB3F
:103E400042464B46FCF7C9FB05E0FCF738FC42460E
:103E50004B46FCF734FC04460E460022284BFCF788
:103E60009DFC03D84FF0FF30014607E00022254BB0
:103E700020463146FCF791FDFCF736FE102409E0A0
:103E8000002C0ADB0A220023FCF7B6FC039B30322D
:103E90001A55641E50EA0102F2D1641C039AC4F15F
:103EA00011031444119A012A03D0012208430DD1B1
:103EB0000AE0084304D000204FF0110B119072E784
:103EC000A3EB0B056D1E0DE05B4504DD4FF000021A
:103ED00005F1010504E003DA4FF00002A5F1010548
:103EE000002AECD002981199C0E90231C0E90045DE
:103EF00079E70000000014400000F03F30000000AF
:103F00000000F0430000E03F2DE9FF4F95B09B46D5
:103F10008946064600250FE2252877D1002427464A
:103F2000F84A0121059400E0044316F8013F203BC4
:103F300001FA03F01042F7D130782A2811D06FF03F
:103F40002F033078A0F13002092A16D8059A44F0E0
:103F5000020402EB820203EB42021044761C05903D
:103F6000EFE759F8042B0592002A03DA504244F493
:103F70000054059044F00204761C30782E2816D1A7
:103F800016F8010F44F004042A280DD06FF02F0218
:103F90003078A0F13003092B09D807EB870302EB37
:103FA0004303C718761CF3E759F8047B761C307876
:103FB0006C280FD006DC4C2817D068280DD06A2852
:103FC00014D104E0742810D07A280FD10DE044F405
:103FD00000140AE044F4801401E044F440147278C0
:103FE000824202D104F58014761C761C3078662853
:103FF0000BD013DC582877D009DC002875D0452871
:10400000F6D04628F4D047281AD19DE118E063285D
:1040100035D0642879D0652812D195E1702873D005
:1040200008DC6728F1D069286FD06E280DD06F2882
:1040300006D1B5E073282CD0752875D0782874D0B7
:104040005A46179990476D1C75E1C4F30250022837
:1040500009D003280DD0D9F8001004280DD00D6028
:1040600009F1040967E1D9F80010EA17C1E9005223
:10407000F6E7D9F800100D80F2E70D70F0E719F8B7
:10408000041B8DF8001000208DF80100EA46012085
:1040900003E059F804AB4FF0FF3061074FF0000127
:1040A00002D40DE008F101018846B9420FDA8045DB
:1040B000F8DB1AF808100029F4D108E008F1010132
:1040C00088468142FADB1AF808100029F6D10598D3
:1040D0005B46A0EB080721463846179A00F094FA91
:1040E000284400EB080507E04DE029E10DE01AF84F
:1040F000010B5A4617999047B8F10108F7D25B4671
:1041000021463846179A13E142E00A220092C4F38E
:1041100002524FF0000A022A08D059F804CB032AB1
:104120004FEAEC710AD00DE029E02AE009F107011D
:1041300021F00702F2E802C1914609E00FFA8CFC77
:104140004FEAEC71042A03D14FFA8CFC4FEAEC7170
:10415000002907DA0A460021DCF1000C61EB0201BC
:104160002D2202E0220504D52B228DF80420012205
:1041700003E0E20701D02022F7E7904659E00A2148
:1041800002E010220DE010214FF0000A00910BE038
:1041900010224FF0000A44F004040827009203E0C4
:1041A00008224FF0000A0092C4F30252022A05D0FE
:1041B00059F804CB0021032A08D009E009F10701CE
:1041C00021F00702F2E802C1914605E01FFA8CFCDB
:1041D000042A01D10CF0FF0C4FF00008220728D56B
:1041E000702806D0009B83F0100353EA0A0305D021
:1041F0000EE040228DF80420012208E05CEA010272
:1042000006D030228DF804208DF805000222904659
:10421000009B83F0080353EA0A030AD15CEA010217
:1042200001D1620705D530228DF804204FF0010836
:104230007F1E582804D034A003900EA802900DE0F1
:1042400036A0F9E753466046009AFCF7D5FA844653
:104250000398825C0298401E029002705CEA0100A2
:10426000F0D1029806A9081A00F1200A600702D5C9
:1042700024F4803400E00127574502DDA7EB0A0053
:1042800000E0002000EB0A01009005984144401A2C
:104290000590E00306D45B462146179A059800F086
:1042A000B3F90544002706E001A85A46C05D1799F6
:1042B00090476D1C7F1C4745F6DBE0030CD55B4641
:1042C0002146179A059800F09FF9054404E0302034
:1042D0005A46179990476D1C0099481E0090002976
:1042E000F5DC08E0029802995A460078491C0291D0
:1042F000179990476D1CBAF10001AAF1010AF1DC8F
:1043000065E1000009280100303132333435363799
:104310003839616263646566000000003031323311
:1043200034353637383941424344454600000000B1
:1043300000F058F90544761C307800287FF4ECAD85
:1043400019B02846BDE8F08F620700D4062709F1AE
:10435000070222F0070CFCE80223E14603F00048C4
:104360005FEA080C02D00FF2702C0DE05FEA045CEB
:1043700002D50FF2682C07E05FEAC47C02D00FF28E
:10438000602C01E0AFF2700C4FF0FF3823F00043D7
:10439000CDF850C065280CD006DC452809D0462849
:1043A0001DD047283DD13DE0662818D067287ED132
:1043B00038E00021112F01DB112000E0781CCDE94D
:1043C000000106A90EA8FFF7DDFCDDE90F010E9A3A
:1043D00003910021009207F1010A04914DE04FF092
:1043E00000400097CDE9011006A90EA8FFF7CAFC0E
:1043F000DDE90F0203920E9B11990022DDF80CA05B
:104400000093049211B9791C00EB010AB7EB0A0082
:1044100004D4C0F1FF3007F1010A0490AAEB0700B1
:10442000019044E0012F00DA01270021112F01DD66
:10443000112000E03846CDE9000106A90EA8FFF7DB
:10444000A1FCDDE90F010E9A039100210491009275
:10445000BA4621070CD40399514500DA8A46BAF1CD
:10446000010F05DD009AAAF10101515C302908D045
:10447000B84202DA10F1040F06DA0121CDE9011089
:1044800015E0AAF10101E9E7002805DC04990144DF
:104490000491AAEB000102E0411C514500DD8A466F
:1044A0000499401A401C01904FF0004002902007F0
:1044B00004D40198504501DBCDF8048000208DF82C
:1044C0004F0002980DF14F07B0F1004F25D02B207F
:1044D0000E9002984FF0020800280CDA4042029039
:1044E0002D200E9007E00A210298FCF76FF9303179
:1044F000029007F8011DB8F10001A8F10108F2DCF3
:1045000002980028EFD1791E0E980870307800F0DC
:10451000200040F0450007F8020D12A8C01B00F172
:1045200007081498007800B1012000EB0A010198F7
:1045300001EBE07105984144401A401E0590E003EC
:1045400006D45B462146179A059800F05DF80544AD
:104550001498007818B15A46179990476D1CE003DB
:1045600024D55B462146179A059800F04DF805447E
:104570001CE00498002807DBDDE90301884203DD25
:104580000098405C179901E0179930205A469047EF
:10459000049805F10105401C04900198401E01900B
:1045A00004D12E205A46179990476D1CBAF100018C
:1045B000AAF1010ADDDC05E017F8010B5A4617994C
:1045C00090476D1CB8F10001A8F10108F4DC5B46CE
:1045D0002146179A0598ABE62D0000002B0000003D
:1045E000200000002DE9F041044600251E46174634
:1045F000880404D405E039462020B0476D1C641EB1
:10460000F9D52846BDE8F0812DE9F04104460025A2
:104610001E469046C80301D5302700E020278804B5
:1046200004D505E041463846B0476D1C641EF9D5F7
:104630002846BDE8F0810A68531C0B601070704773
:1046400070B54FF416511348FBF7C6FD4FF41661D1
:104650001148FBF7C1FD002010490880104908806F
:10466000401E104908601049086010A42046FBF75E
:10467000D0FD85B22A4621460F48FEF773FE20463C
:10468000FBF7C7FD85B22A4621460C48FEF76AFEB5
:1046900070BD000000050020802A00201A000020C4
:1046A0001C0000202C00002030000020434C45411D
:1046B00052204F4B3B0D0A00F0000020300100203B
:1046C000014608687047000010B5FDF781F9034BFB
:1046D0001A685B68801843F1000110BD38000020A3
:1046E0000146302904DB392902DCA1F13000704792
:1046F000412904DB462902DCA1F13700F7E76129F3
:1047000004DB662902DCA1F15700F0E74FF0FF302F
:10471000EDE7F0B502460D46002613461DE012F8FF
:10472000010BFFF7DDFF0446002C00DA16E020073E
:10473000000E187012F8010BFFF7D2FF0446002C90
:1047400002DA4FF0FF30F0BD1878204318700DB139
:10475000187805445B1C761C00BFE0E700BF3046BC
:10476000F1E70000A2B00320FA4908700020FA49DE
:104770000870FDF73BF9FEF7FFFFFEF76DFEFEF751
:1047800049FEFEF7EDFEFEF70DFFFEF727FF01F0F5
:1047900063F8F249086001F057F8F149088001F028
:1047A00063F8EC49087008460078032801DD03200F
:1047B000087001F061F8EB49087001225103EA48E2
:1047C000FDF700F902F0DAF801F0FCFA02F0EEF978
:1047D000E6A000F0C7FF0122E749E848FEF780FCA9
:1047E0000122E749E748FEF77BFC00F0A2BFDA4868
:1047F0000078012804D10020D749087001F00EFA92
:10480000DE48C08D20B90122DB49DC48FEF768FC98
:10481000DC48C08D20B90122D949DA48FEF760FC96
:10482000FFF752FFD84A156852684FF4FA742B19F3
:1048300042F10002C01A914127DA00224FF40051E0
:10484000C948FDF7BFF8FFF73FFF054662000023A8
:10485000FBF768FC17461946642200233846FBF72D
:1048600061FC044600EBD4704010A4EB400028B972
:1048700001229103BC48FDF7A5F830E000224FF477
:104880008041B948FDF79EF829E0B6480078012834
:104890001AD1BE48007858B901229103B248FDF7F9
:1048A00091F800224FF40051AF48FDF78BF816E065
:1048B00000224FF48041AC48FDF784F801225103F7
:1048C000A948FDF77FF80AE000224FF48041A6488E
:1048D000FDF778F801225103A348FDF773F8AC48BF
:1048E0000078012803D0AB480078012872D1AAA132
:1048F000AB48FBF77CFCC0B9AAA1A948FBF777FC41
:1049000098B9AAA1A648FBF772FC70B9A2A1A94860
:10491000FBF76DFC48B9A3A1A648FBF768FC20B9DA
:10492000A2A1A448FBF763FC98B3A3480068401C0D
:10493000B0F5967F2CDAA0480068401C9E490860BC
:1049400087480088ADF8740000208DF880000220B0
:104950008DF881009949984A126801EB4210DDE90F
:104960001A21026041601C998160BDF87410818138
:104970001E9901611F9941619DF8801001769DF893
:10498000811041769DF8821081769DF88310C17662
:1049900011E2FFE78AA18748FBF729FC70B988A1DB
:1049A0007F48FBF724FC48B987A17D48FBF71FFC33
:1049B00020B985A17F48FBF71AFC10B1FFF740FE34
:1049C000F9E183A17B48FBF712FC20B1794801F0A3
:1049D000F3FDF0E105E282A17648FBF708FC18B18F
:1049E000744801F045FEE6E179A16D48FBF7FFFB55
:1049F00018B16B4801F0E0FDDDE179A16848FBF7F3
:104A0000F6FB18B1664801F033FED4E178A169489D
:104A1000FBF7EDFB18B1674801F0BCFCCBE176A1D8
:104A20006448FBF7E4FB18B1624801F03BFDC2E1CA
:104A30006FA15B48FBF7DBFB18B1594801F0AAFCFA
:104A4000B9E16DA15648FBF7D2FB18B1544801F00B
:104A500029FDB0E16CA15748FBF7C9FB18B15548D7
:104A600001F03AFBA7E168A14D48FBF7C0FB18B184
:104A70004B4801F031FB9EE165A14E48FBF7B7FBC7
:104A800018B14C4801F074FB95E161A14448FBF773
:104A9000AEFB18B1424801F06BFB8CE15EA14548CA
:104AA000FBF7A5FB18B1434801F0EAFB83E15AA1EB
:104AB0003B48FBF79CFB18B1394801F0E1FB7AE178
:104AC00058A13C48FBF793FB18B13A4801F080FA33
:104AD00071E154A13248FBF78AFB18B1304801F06C
:104AE00077FA68E152A13348FBF781FB18B13148EE
:104AF00001F0DCF95FE14EA12948FBF778FB18B122
:104B0000274801F0D3F956E14CA12A48FBF76FFB87
:104B100018B1284801F00CFE4DE148A12048FBF7F0
:104B200066FB18B11E4801F003FE44E146A121488E
:104B3000FBF75DFB18B11F4801F068FE3BE142A1A5
:104B40001748FBF754FB18B1154801F05FFE32E13E
:104B500084E00000140000207400002064000020A5
:104B60002A0000201300002000100140535441523D
:104B700054200D0A00000000270000203001002012
:104B800026000020F0000020480000201200002035
:104B9000280000202900002048656C6C6F00000090
:104BA0003804002048454C4C4F00000068656C6C90
:104BB0006F000000700300202C0000200005002082
:104BC000434C454152000000636C65617200000077
:104BD0002C53656E736974697669747900000000FE
:104BE00073657473656E73697469766974793A0074
:104BF00053454E442C0000006C617072656365691A
:104C00007665643A0000000073657469643A0000D8
:104C10005057522C0000000073656E647077723A32
:104C20000000000073656E64636F6C6F723A000081
:104C30007365617263687472616E73007365747416
:104C4000696D653A0000000074696D6573796E6383
:104C50006872656365697665643A0000FBA1FE4889
:104C6000FBF7C5FA58B1FDA42046FBF7D2FA85B28E
:104C700033232A462146FD48FEF7FCFA9BE0FCA1BF
:104C8000F548FBF7B4FA18B30120FC490870FFF7A8
:104C90001BFDFB4A10605160FA4821ABFA4AFBA1A8
:104CA0000090ED48FBF7BCFAEB4C2046FBF7B1FA5D
:104CB00085B233232A462146EC48FEF7DBFA9DF8FD
:104CC0008400F949087001F07DF800F0C5FF72E03A
:104CD000F6A1F748FBF78BFAF0B3F54D2846FBF742
:104CE00098FA86B2332332462946F248FEF7C2FAD2
:104CF000F1480068401CB0F5967F2FDAEE48006856
:104D0000401CED490860E0480088ADF874000020C0
:104D10008DF8800002208DF88100E849E64A12688B
:104D200001EB4210DDE91A12016042601C998160BA
:104D3000BDF8741081811E9901611F9941619DF830
:104D4000801001769DF8811041769DF88210817661
:104D50009DF88310C17600E00AE000BFD8A1D448D6
:104D6000FBF745FA044614B10020C449087022E05C
:104D7000D7A1CF48FBF73BFA18B1CD4801F044F872
:104D800019E0D3A1B448FBF732FA18B1B24801F0E8
:104D90003BF810E0D0A1B048FBF729FA18B1AE48B3
:104DA00000F0AAFF07E0CCA1C148FBF720FA10B140
:104DB000BF4800F0A1FFCB480078012806D1C821E8
:104DC000BB48FBF709FA0020C6490870C6480078BE
:104DD000012806D1C821A048FBF7FEF90020C249EE
:104DE0000870FFF771FCC14A1468526814F1C803D7
:104DF00042F10002181A8A417EDAAF4800680028A2
:104E00007ADBAE48467E022E77D1806880B2219050
:104E1000AA48B0F80C90FFF757FC04460D46B4487A
:104E20000078E8BB00208DF87F0004208DF87E001C
:104E300009F0FF008DF87D004FEA29208146C0B2BD
:104E40008DF87C00984800788DF87B00E0B28DF8F2
:104E50007A00200A40EA05602D120446C0B28DF89F
:104E60007900200A40EA05602D120446C0B28DF890
:104E70007800200A40EA05602D120446C0B28DF881
:104E80007700200A40EA05602D120446C0B28DF872
:104E90007600200A40EA0560C0B28DF8750000E097
:104EA00016E080208DF874000C211DA8FCF718F87E
:104EB0008DF880000A208DF881000E221DA97D4802
:104EC000FEF750FA0E221DA96848FEF74BFA35E0AE
:104ED000FFF7FAFB07460B4686A0734909783A4666
:104EE000CDE90019029084A108A8FEF715FF0790EC
:104EF00008A8FBF78EF901E07BE377E0C7B23946FB
:104F000008A8FBF7EDFF83465B4608AA80A108A826
:104F1000FEF702FF079008A8FBF77BF987B23A4635
:104F200008A96448FEF71EFA08A8FBF772F987B2D1
:104F30003A4608A94D48FEF715FA00BF40F22B1A71
:104F400000204BE05D4A411C02EB41110A684968B0
:104F50005A4B03EB40131A605960584A411C02EB4C
:104F60004111896802EB40129160544A411C02EBE6
:104F70004111898902EB40129181504A411C02EB98
:104F80004111096902EB401211614C4A411C02EBCC
:104F90004111496902EB40125161484A411C02EB40
:104FA0004111097E02EB40121176444A411C02EB8A
:104FB0004111497E02EB40125176404A411C02EBFE
:104FC0004111897E02EB401291763C4A411C02EB72
:104FD0004111C97E02EB4012D176401C5045B1DB35
:104FE00035480068401E34490860FCE2042E2CD18C
:104FF000324880681FFA80FA30488789FFF764FBDF
:1050000004460D463A480078F0B900208DF8830038
:1050100004208DF88200F8B28DF88100381207461E
:10502000C0B28DF88000204800788DF87F00E0B293
:105030008DF87E00200A40EA05602D120446C0B2B9
:105040008DF87D00200A67E09AE026E165737067BD
:105050006574696E666F00003804002065737067C0
:105060006574696E666F0D0A000000003001002053
:10507000657370736574696E666F000012000020BE
:1050800048000020130000202A000020252A5B652C
:105090007370736574696E666F3A5D25642C256460
:1050A0002C25642C000000001400002065737000A3
:1050B00070030020F00000202C00002000050020DC
:1050C000657370636F6E6E656374656400000000E5
:1050D000676574696E666F0073656E64666C617394
:1050E0006800000028000020290000204000002067
:1050F00011000020302E350073797374696D653AA4
:10510000256C6C642C25642C25642C257300000010
:1051100025732C25640D0A0040EA05602D12044613
:10512000C0B28DF87C00200A40EA05602D120446CA
:10513000C0B28DF87B00200A40EA05602D120446BB
:10514000C0B28DF87A00200A40EA0560C0B28DF83E
:10515000790079208DF878000C211EA8FBF7C0FE9D
:105160008DF884000A208DF885000E221EA9FE48C5
:10517000FEF7F8F80E221EA9FC48FEF7F3F834E01B
:10518000AFF29000FA49097822462B46CDE9001784
:105190000290F8A109A8FEF7BFFD089009A8FBF747
:1051A00038F800F0FF0B594609A8FBF799FE814635
:1051B0004B4609AAAFF2A80109A8FEF7ADFD089079
:1051C00009A8FBF726F81FFA80FB5A4609A9E6480A
:1051D000FEF7C8F809A8FBF71CF81FFA80FB5A462F
:1051E00009A9E248FEF7BEF800BF40F22B180020E4
:1051F0004BE0E54A411C02EB41110A684968E24B69
:1052000003EB40131A605960DF4A411C02EB411165
:10521000896802EB40129160DB4A411C02EB4111AC
:10522000898902EB40129181D74A411C02EB41115E
:10523000096902EB40121161D34A411C02EB411192
:10524000496902EB40125161CF4A411C02EB411106
:10525000097E02EB40121176CB4A411C02EB411150
:10526000497E02EB40125176C74A411C02EB4111C4
:10527000897E02EB40129176C34A411C02EB411138
:10528000C97E02EB4012D176401C4045B1DBBF48DD
:105290000068401EBD490860A5E1052E7ED1BA48D0
:1052A00080681FFA80FAB8488789FFF70DFA04462C
:1052B0000D46B7480078E8BBE0B28DF88400200ABC
:1052C00040EA05602D120446C0B28DF88300200A22
:1052D00040EA05602D120446C0B28DF88200200A13
:1052E00040EA05602D120446C0B28DF88100200A04
:1052F00040EA05602D120446C0B28DF88000200AF5
:1053000040EA0560C0B28DF87F00F8B28DF87E00EB
:1053100038120746C0B28DF87D0078208DF87C00E9
:1053200009211FA8FBF7DCFD8DF885000A208DF808
:10533000860000E00AE00B221FA98B48FEF712F856
:105340000B221FA98948FEF70DF830E03A4691A1DB
:1053500009A8CDE90045FEF7DFFC834609A8FAF766
:1053600058FF00F0FF09494609A8FBF7B9FD804640
:10537000434609AAAFF2682109A8FEF7CDFC83468F
:1053800009A8FAF746FF1FFA80F94A4609A97648A4
:10539000FDF7E8FF09A8FAF73CFF00E008E01FFA74
:1053A00080F94A4609A97148FDF7DCFF00BF1AE100
:1053B000012E7AD174480468456800691FFA80F8A4
:1053C00071488768B0F80C90007E21906E4890F884
:1053D0001AA06F480078E8BB8DF87FA0E0B28DF886
:1053E0007E00200A40EA05602D120446C0B28DF806
:1053F0007D00200A40EA05602D120446C0B28DF8F7
:105400007C00200A40EA05602D120446C0B28DF8E7
:105410007B00200A40EA05602D120446C0B28DF8D8
:105420007A00200A40EA0560C0B28DF8790008F0E1
:10543000FF008DF878004FEA28208046C0B28DF832
:10544000770009F0FF008DF876004FEA29208146A9
:10545000C0B200E02AE08DF87500F8B28DF8740053
:10546000380A0746C0B28DF87300380A0746C0B242
:105470008DF87200380A07468DF8710077208DF894
:10548000700010211CA8FBF72BFD8DF880000A206E
:105490008DF8810012221CA93348FDF763FF122208
:1054A0001CA93248FDF75EFF33E033E04B463A4635
:1054B0003DA108A8CDE9035ACDF800800294FEF77B
:1054C0002BFC079008A8FAF7A4FE00F0FF0B594642
:1054D00008A8FBF705FD069008AAAFF2CC3108A892
:1054E000069BFEF719FC079008A8FAF792FE1FFA30
:1054F00080FB5A4608A91C48FDF734FF08A8FAF7B4
:1055000088FE1FFA80FB5A4608A91848FDF72AFFB3
:1055100000BF68E0062E66D11B48006984B22246AF
:1055200027A109A8FEF7F8FB804609A8FAF771FE43
:10553000C7B2394609A8FBF7D3FC05462B4609AA92
:10554000AFF2344109A8FEF7E7FB804609A8FAF755
:1055500060FE87B23A4609A90348FDF703FF09A890
:10556000FAF757FE87B233E0F00000203001002048
:1055700014000020696E666F3A256C6C642C2564FB
:105580002C25642C25730000000500202C00002031
:105590001100002074696D6573796E63686F6B3AF2
:1055A00025642C256C6C64006C61703A25642C2594
:1055B000642C25642C256C6C642C25640000000090
:1055C0006563686F7472616E733A25640000000051
:1055D0003A4609A95848FDF7C5FE58480068401EDC
:1055E0005649086000BFFFF76FF8554A10605160D8
:1055F0009FE0FFF769F8524A1468526814F1640397
:1056000042F10002181A8A417EDAFFF75DF84D4A2E
:10561000136852684FF47A755B1942F10002181A48
:105620008A4171DAFFF750F8464A1060516011461E
:105630000C684D6844480078F0BB44480688F0B2D6
:105640008DF88400301206468DF88300E0B28DF8A4
:105650008200200A40EA05602D120446C0B28DF88F
:105660008100200A40EA05602D120446C0B28DF880
:105670008000200A40EA05602D120446C0B28DF871
:105680007F00200A40EA05602D120446C0B28DF862
:105690007E00200A40EA0560C0B28DF87D007620C9
:1056A0008DF87C0009211FA8FBF71AFC8DF88500F6
:1056B0000A208DF8860000E00AE00B221FA924488A
:1056C000FDF750FE0B221FA91B48FDF74BFE2FE0F4
:1056D0001E48008822462B461EA1009009A8FEF70E
:1056E0001BFB804609A8FAF794FDC7B2394609A802
:1056F000FBF7F6FB0646334609AAAFF2EC5109A8C0
:10570000FEF70AFB804600E013E009A8FAF781FDE6
:1057100087B23A4609A90E48FDF724FE09A8FAF710
:1057200078FD87B23A4609A90348FDF71BFE00BF82
:1057300000BFFFF75CB80000300100202C00002003
:105740004000002050000020110000202A0000200E
:10575000F000002070696E673A256C6C642C25643B
:10576000000000000FB408B503A80090009902984B
:1057700001F0D4F80020009001B05DF814FB0FB4E4
:1057800008B503A800900099029801F0DFF8002006
:10579000009001B05DF814FBF0B589B006460F46E5
:1057A00014461D46FEF790FF224A106051602248C1
:1057B0000068401CB0F5967F39DA1F480068401C2D
:1057C0001D4908601D480068401C1C49086004967B
:1057D0000846006802901A480088ADF80C00CDE930
:1057E000004501208DF819008DF81A701549124AEC
:1057F000126801EB4210DDE900210260416002996C
:105800008160BDF80C1081810499016105994161A5
:105810009DF8181001769DF8191041769DF81A1020
:1058200081769DF81B10C17600F048FA00BF09B0E0
:10583000F0BD0000480000202C0000206400002083
:105840002A0000200005002000B50248FEF738FFBE
:1058500000BD000000F8000800B50248FEF730FF68
:1058600000BD000000FC000800B50248FEF728FF5C
:1058700000BD000004F8000800B50248FEF720FF54
:1058800000BD000008F8000810B5FEF71DFF024A31
:105890001060516010BD0000580000202DE9F04F4D
:1058A0008DB004462078332802D1E178032913D043
:1058B0002078342806D104212046FBF711FB2179FA
:1058C000884209D0207835287ED106212046FBF772
:1058D00007FBA1798842F7D194F801A0A07840EAAB
:1058E0000A2A00200C902078342801D1E0780C900E
:1058F00000252E46AB46A94600BF11E009EB490042
:10590000B44931F83000504508D109EB490001EBAA
:10591000C0008568C6684FF0010B05E009F1010978
:10592000AD4800688145E9DD00BFBBF1000F30D113
:10593000A9480068401CA849086008460068642817
:1059400027DA0846D0F80090ADF800A000210291B7
:105950000391BDF8000009EB49019E4A22F831008D
:1059600009EB49029B4B03EBC202DDE90210916097
:10597000D0609DF8100009EB49011A4602EBC10105
:1059800008749DF8110009EB490102EBC10148744C
:1059900000BFFEF799FE4FF4FA63EB1846F10002E0
:1059A000181A8A4117DAFEF78FFE074688462078D4
:1059B000352807D12079617941EA00203F1A68F142
:1059C000000800BF3A4600E02BE0434650460C99E1
:1059D000FFF7E2FE00BFADF818A0FEF775FECDE9B7
:1059E0000801BDF8180009EB49017A4A22F8310094
:1059F00009EB4902774B03EBC202DDE90810916025
:105A0000D0609DF8280009EB49011A4602EBC1015C
:105A100008749DF8290009EB490102EBC1014874A3
:105A2000D4E0207811287DD103212046FBF758FAD5
:105A3000E1788842F7D16578A07840EA0525674883
:105A40000068401CB0F5967F2BDA64480068401C63
:105A5000624908600895FEF737FECDE9040106208B
:105A60008DF829005E495D4A126801EB4210DDE9BC
:105A700004120160426006998160BDF81C108181AA
:105A800008990161099941619DF8281001769DF8F6
:105A9000291041769DF82A1081769DF82B10C17649
:105AA00000BF4E480068401CB0F5967F2BDA4B488B
:105AB0000068401C494908600895FEF705FECDE9DD
:105AC000040106208DF829004549444A126801EB7B
:105AD0004210DDE904210260416006998160BDF851
